:10000000EEEF01F061006200630064000000610037
:100010006200630064000000EA6A390EE96EEF5086
:100020000DE0060E016E006A002EFED7012EFBD7F2
:100030007B0E006E002EFED7EF2EF3D71200386A2B
:10004000386A3750385C09E294928B82140E396E0C
:10005000E3DF94928B923706F4D7000E016E120004
:10006000386A386A3750385C09E294928B82280EDD
:10007000396ED2DF94928B923706F4D7000E016E60
:100080001200020E376E960E396EC6DF372EFBD782
:10009000928880A80CD0010E376ED1DF95908C909D
:1000A000020E376EFA0E396EB7DF372EFBD7968009
:1000B00084A00CD0010E376EC2DF95928C92020E96
:1000C000376EFA0E396EA8DF372EFBD71200010EFD
:1000D000376EB5DF95948C84968484A4FDD7C80EC2
:1000E000396E9ADF020E376EBBDF959A8C8A020E4C
:1000F000376EFA0E396E90DF372EFBD7010E376E52
:100100009EDF95948C94968284A2FDD7020E376E62
:10011000FA0E396E81DF372EFBD7B3DF120033C002
:1001200035F034C036F0352C3AD0010E376E87DF0B
:1001300095908C80020E376E960E396E6DDF372EDD
:10014000FBD7928880A8FDD7362C1BD0010E376EC6
:1001500076DF95928C82020E376E960E396E5CDFDA
:10016000372EFBD7968084A0FDD7020E376E960EF1
:10017000396E52DF372EFBD7AADF020E356E366E90
:100180000DD036520BE1020E376E960E396E44DFFB
:10019000372EFBD79CDF020E356E366E2CD03552D3
:1001A0002AE1362C1BD0010E376E49DF95928C82E6
:1001B000020E376E960E396E2FDF372EFBD79680E4
:1001C00084A0FDD7020E376E960E396E25DF372ECE
:1001D000FBD77DDF020E356E366E0DD036520BE149
:1001E000020E376E960E396E17DF372EFBD76FDF94
:1001F000020E356E366E000E016EE3EF01F0010E59
:10020000376E1DDF95948C84968484A4FDD7C80E28
:10021000396E02DF020E376E23DF959A8C9AC80E74
:10022000396EFADE010E376E0ADF95948C94968251
:1002300084A2FDD7020E376EFA0E396EEDDE372E30
:10024000FBD71FDF120033C035F034C036F0352C39
:1002500033D0010E376EF3DE95908C80928880A8A3
:10026000FDD7020E376E960E396ED6DE372EFBD7CF
:10027000362C14D0010E376EE2DE95928C82968079
:1002800084A0FDD7020E376E960E396EC5DE372E6E
:10029000FBD7B5DF020E356E366E0DD036520BE150
:1002A000020E376E960E396EB7DE372EFBD7A7DFFC
:1002B000020E356E366E25D0355223E1362C14D021
:1002C000010E376EBCDE95928C82968084A0FDD79D
:1002D000020E376E960E396E9FDE372EFBD78FDFFC
:1002E000020E356E366E0DD036520BE1020E376EB1
:1002F000960E396E91DE372EFBD781DF020E356EFA
:10030000366E000E016EE8EF01F0346A346A335045
:10031000345C0DE294928B82040E356EFA0E396EC7
:100320007BDE352EFBD794928B923306F0D7EDEF20
:1003300001F02D6A2E6A2D6A2D500B084BE3020E38
:100340002E6E2E500D0845E3036A2D502B24E96EC6
:100350002C500320EA6EEF5002080AE1036A2E5087
:100360002B24E96E2C500320EA6EEF50020830E097
:10037000036A2D502B24E96E2C500320EA6EEFCF38
:100380002FF0010E2D24036A2B24E96E2C5003203C
:10039000EA6EEFCF30F0036A2E502B24E96E2C501A
:1003A0000320EA6EEFCF31F0010E2E24036A2B24D6
:1003B000E96E2C500320EA6EEFCF32F02FC033F0FD
:1003C00030C034F0ACD631C033F032C034F03BD75B
:1003D000B8D7B2D7010E336E98D71200F86AD09E04
:1003E000B886080EAF6E020EB06EA60EAC6E900E02
:1003F000AB6EC150C00B0F09C16E070EB46E046A1C
:10040000056A928280A215D0010E0B6E0C6E0D6AE9
:100410000E6A0F6A106E116E126E136E146A156AF0
:10042000166E176E186E196E1A6A2C6A0B0E2B6EEA
:1004300080DF928480A416D01B6A1C6A010E1D6E98
:100440001E6E1F6A206E216A226A020E236E246EBF
:10045000256E266E276E286E296E2A6E2C6A1B0E5C
:080460002B6E67DFCED703000D
:020000040030CA
:0E00000004CC380E0087A1000FC00FE00F40A7
:00000001FF
;PIC18F4550
;CRC=D0C2  CREATED="02-mai-19 10:37"
